{
  "abi": [
    {
      "inputs": [
        {
          "internalType": "address",
          "name": "_lensHubAddress",
          "type": "address"
        }
      ],
      "stateMutability": "nonpayable",
      "type": "constructor"
    },
    {
      "anonymous": false,
      "inputs": [
        {
          "indexed": true,
          "internalType": "address",
          "name": "previousOwner",
          "type": "address"
        },
        {
          "indexed": true,
          "internalType": "address",
          "name": "newOwner",
          "type": "address"
        }
      ],
      "name": "OwnershipTransferred",
      "type": "event"
    },
    {
      "anonymous": false,
      "inputs": [
        {
          "indexed": false,
          "internalType": "address",
          "name": "account",
          "type": "address"
        }
      ],
      "name": "Paused",
      "type": "event"
    },
    {
      "anonymous": false,
      "inputs": [
        {
          "indexed": false,
          "internalType": "address",
          "name": "account",
          "type": "address"
        }
      ],
      "name": "Unpaused",
      "type": "event"
    },
    {
      "inputs": [
        {
          "components": [
            {
              "internalType": "address",
              "name": "collector",
              "type": "address"
            },
            {
              "internalType": "uint256",
              "name": "profileId",
              "type": "uint256"
            },
            {
              "internalType": "uint256",
              "name": "pubId",
              "type": "uint256"
            },
            {
              "internalType": "bytes",
              "name": "data",
              "type": "bytes"
            },
            {
              "components": [
                {
                  "internalType": "uint8",
                  "name": "v",
                  "type": "uint8"
                },
                {
                  "internalType": "bytes32",
                  "name": "r",
                  "type": "bytes32"
                },
                {
                  "internalType": "bytes32",
                  "name": "s",
                  "type": "bytes32"
                },
                {
                  "internalType": "uint256",
                  "name": "deadline",
                  "type": "uint256"
                }
              ],
              "internalType": "struct DataTypes.EIP712Signature",
              "name": "sig",
              "type": "tuple"
            }
          ],
          "internalType": "struct DataTypes.CollectWithSigData",
          "name": "vars",
          "type": "tuple"
        }
      ],
      "name": "collectWithSig",
      "outputs": [],
      "stateMutability": "nonpayable",
      "type": "function"
    },
    {
      "inputs": [],
      "name": "lensHubAddress",
      "outputs": [
        {
          "internalType": "address",
          "name": "",
          "type": "address"
        }
      ],
      "stateMutability": "view",
      "type": "function"
    },
    {
      "inputs": [],
      "name": "owner",
      "outputs": [
        {
          "internalType": "address",
          "name": "",
          "type": "address"
        }
      ],
      "stateMutability": "view",
      "type": "function"
    },
    {
      "inputs": [],
      "name": "paused",
      "outputs": [
        {
          "internalType": "bool",
          "name": "",
          "type": "bool"
        }
      ],
      "stateMutability": "view",
      "type": "function"
    },
    {
      "inputs": [],
      "name": "renounceOwnership",
      "outputs": [],
      "stateMutability": "nonpayable",
      "type": "function"
    },
    {
      "inputs": [
        {
          "internalType": "address",
          "name": "_lensHubAddress",
          "type": "address"
        }
      ],
      "name": "setLensHubAddress",
      "outputs": [],
      "stateMutability": "nonpayable",
      "type": "function"
    },
    {
      "inputs": [
        {
          "internalType": "address",
          "name": "newOwner",
          "type": "address"
        }
      ],
      "name": "transferOwnership",
      "outputs": [],
      "stateMutability": "nonpayable",
      "type": "function"
    }
  ],
  "bytecode": {
    "object": "0x608060405234801561001057600080fd5b5060405161061e38038061061e83398101604081905261002f916100c0565b6000805460ff1916905561004233610067565b600180546001600160a01b0319166001600160a01b03929092169190911790556100f0565b600080546001600160a01b03838116610100818102610100600160a81b0319851617855560405193049190911692909183917f8be0079c531659141344cd1fd0a4f28419497f9722a3daafe3b4186f6b6457e091a35050565b6000602082840312156100d257600080fd5b81516001600160a01b03811681146100e957600080fd5b9392505050565b61051f806100ff6000396000f3fe608060405234801561001057600080fd5b506004361061007d5760003560e01c8063715018a61161005b578063715018a6146100dd5780638da5cb5b146100e5578063b48951e4146100fb578063f2fde38b1461010e57600080fd5b8063195d5a76146100825780635c975abb146100975780635dfadbdb146100b2575b600080fd5b610095610090366004610377565b610121565b005b60005460ff1660405190151581526020015b60405180910390f35b6001546100c5906001600160a01b031681565b6040516001600160a01b0390911681526020016100a9565b61009561014b565b60005461010090046001600160a01b03166100c5565b610095610109366004610399565b61015f565b61009561011c366004610377565b6101de565b61012961025c565b600180546001600160a01b0319166001600160a01b0392909216919091179055565b61015361025c565b61015d60006102bc565b565b610167610315565b600154604051632d22547960e21b81526001600160a01b039091169063b48951e490610197908490600401610432565b6020604051808303816000875af11580156101b6573d6000803e3d6000fd5b505050506040513d601f19601f820116820180604052508101906101da91906104d0565b5050565b6101e661025c565b6001600160a01b0381166102505760405162461bcd60e51b815260206004820152602660248201527f4f776e61626c653a206e6577206f776e657220697320746865207a65726f206160448201526564647265737360d01b60648201526084015b60405180910390fd5b610259816102bc565b50565b6000546001600160a01b0361010090910416331461015d5760405162461bcd60e51b815260206004820181905260248201527f4f776e61626c653a2063616c6c6572206973206e6f7420746865206f776e65726044820152606401610247565b600080546001600160a01b03838116610100818102610100600160a81b0319851617855560405193049190911692909183917f8be0079c531659141344cd1fd0a4f28419497f9722a3daafe3b4186f6b6457e091a35050565b60005460ff161561015d5760405162461bcd60e51b815260206004820152601060248201526f14185d5cd8589b194e881c185d5cd95960821b6044820152606401610247565b80356001600160a01b038116811461037257600080fd5b919050565b60006020828403121561038957600080fd5b6103928261035b565b9392505050565b6000602082840312156103ab57600080fd5b813567ffffffffffffffff8111156103c257600080fd5b8201610100818503121561039257600080fd5b81835281816020850137506000828201602090810191909152601f909101601f19169091010190565b803560ff811680821461041057600080fd5b8352506020818101359083015260408082013590830152606090810135910152565b602081526001600160a01b036104478361035b565b166020820152602082013560408201526040820135606082015260006060830135601e1984360301811261047a57600080fd5b830160208101903567ffffffffffffffff81111561049757600080fd5b8036038213156104a657600080fd5b61010060808501526104bd610120850182846103d5565b91505061039260a08401608086016103fe565b6000602082840312156104e257600080fd5b505191905056fea26469706673582212207527b0f94800df1504b7c9f630f315d55477a3d999e20e8eae032cd3b11cccc364736f6c634300080f0033",
    "linkReferences": {}
  },
  "methodIdentifiers": {
    "collectWithSig((address,uint256,uint256,bytes,(uint8,bytes32,bytes32,uint256)))": "b48951e4",
    "lensHubAddress()": "5dfadbdb",
    "owner()": "8da5cb5b",
    "paused()": "5c975abb",
    "renounceOwnership()": "715018a6",
    "setLensHubAddress(address)": "195d5a76",
    "transferOwnership(address)": "f2fde38b"
  },
  "id": 23
}